{
  "contractName": "Election",
  "abi": [
    {
      "constant": true,
      "inputs": [
        {
          "name": "",
          "type": "uint256"
        }
      ],
      "name": "candidates",
      "outputs": [
        {
          "name": "id",
          "type": "uint256"
        },
        {
          "name": "name",
          "type": "string"
        },
        {
          "name": "voteCount",
          "type": "uint256"
        }
      ],
      "payable": false,
      "stateMutability": "view",
      "type": "function"
    },
    {
      "constant": true,
      "inputs": [
        {
          "name": "",
          "type": "address"
        }
      ],
      "name": "voters",
      "outputs": [
        {
          "name": "",
          "type": "bool"
        }
      ],
      "payable": false,
      "stateMutability": "view",
      "type": "function"
    },
    {
      "constant": true,
      "inputs": [],
      "name": "candidateCount",
      "outputs": [
        {
          "name": "",
          "type": "uint256"
        }
      ],
      "payable": false,
      "stateMutability": "view",
      "type": "function"
    },
    {
      "inputs": [],
      "payable": false,
      "stateMutability": "nonpayable",
      "type": "constructor"
    },
    {
      "anonymous": false,
      "inputs": [
        {
          "indexed": true,
          "name": "_candidateId",
          "type": "uint256"
        }
      ],
      "name": "votedEvent",
      "type": "event"
    },
    {
      "constant": false,
      "inputs": [
        {
          "name": "_candidateId",
          "type": "uint256"
        }
      ],
      "name": "vote",
      "outputs": [],
      "payable": false,
      "stateMutability": "nonpayable",
      "type": "function"
    }
  ],
  "bytecode": "0x608060405234801561001057600080fd5b5061005e6040805190810160405280600b81526020017f63616e64696461746520310000000000000000000000000000000000000000008152506100b0640100000000026401000000009004565b6100ab6040805190810160405280600b81526020017f63616e64696461746520320000000000000000000000000000000000000000008152506100b0640100000000026401000000009004565b6101d2565b6002600081548092919060010191905055506060604051908101604052806002548152602001828152602001600081525060016000600254815260200190815260200160002060008201518160000155602082015181600101908051906020019061011c92919061012d565b506040820151816002015590505050565b828054600181600116156101000203166002900490600052602060002090601f016020900481019282601f1061016e57805160ff191683800117855561019c565b8280016001018555821561019c579182015b8281111561019b578251825591602001919060010190610180565b5b5090506101a991906101ad565b5090565b6101cf91905b808211156101cb5760008160009055506001016101b3565b5090565b90565b610404806101e16000396000f300608060405260043610610062576000357c0100000000000000000000000000000000000000000000000000000000900463ffffffff1680630121b93f146100675780633477ee2e14610094578063a3ec138d14610148578063a9a981a3146101a3575b600080fd5b34801561007357600080fd5b50610092600480360381019080803590602001909291905050506101ce565b005b3480156100a057600080fd5b506100bf600480360381019080803590602001909291905050506102f0565b6040518084815260200180602001838152602001828103825284818151815260200191508051906020019080838360005b8381101561010b5780820151818401526020810190506100f0565b50505050905090810190601f1680156101385780820380516001836020036101000a031916815260200191505b5094505050505060405180910390f35b34801561015457600080fd5b50610189600480360381019080803573ffffffffffffffffffffffffffffffffffffffff1690602001909291905050506103b2565b604051808215151515815260200191505060405180910390f35b3480156101af57600080fd5b506101b86103d2565b6040518082815260200191505060405180910390f35b6000803373ffffffffffffffffffffffffffffffffffffffff1673ffffffffffffffffffffffffffffffffffffffff16815260200190815260200160002060009054906101000a900460ff1615151561022657600080fd5b60008111801561023857506002548111155b151561024357600080fd5b60016000803373ffffffffffffffffffffffffffffffffffffffff1673ffffffffffffffffffffffffffffffffffffffff16815260200190815260200160002060006101000a81548160ff0219169083151502179055506001600082815260200190815260200160002060020160008154809291906001019190505550807ffff3c900d938d21d0990d786e819f29b8d05c1ef587b462b939609625b684b1660405160405180910390a250565b6001602052806000526040600020600091509050806000015490806001018054600181600116156101000203166002900480601f0160208091040260200160405190810160405280929190818152602001828054600181600116156101000203166002900480156103a25780601f10610377576101008083540402835291602001916103a2565b820191906000526020600020905b81548152906001019060200180831161038557829003601f168201915b5050505050908060020154905083565b60006020528060005260406000206000915054906101000a900460ff1681565b600254815600a165627a7a72305820803867d699c4054f6f24ab41f38a7b519489a4fc93b44454188d1968f8a935840029",
  "source": "pragma solidity ^0.4.24;\n\ncontract Election {\n\n\t//the first letter of contract name is capitalized\n\t//2.model a candidate\n\tstruct Candidate {\n\t\tuint id;\n\t\tstring name;\n\t\tuint voteCount;\n\t}\n\n\n\t//store accounts that has voted\n\tmapping(address => bool) public voters;\n\n\t//1.store candidates we need to save the candidates \n\tmapping(uint => Candidate) public candidates; \n\t//mapping in solidity is like an associative array which maps key value pairs \n\t//when we add candidates we are changing the stte of our blockchain this will be interacting with the data layer of the blockchain\n\t//the size of this mapping cannot be determined in solidity and no way to iterate\n\t//if look for a candidate not stored a default value is returned \n\t//when we call this function it expects a key as an argument\n\n\n\t//adding an event\n\tevent votedEvent (\n\t\t  uint indexed _candidateId\n\t);\n\n\n\t//after returning the promise the items inside the result must be accessed using array repreasentation\n\n\t//fetch candidate\n\n\t//store candidate count we are going to use a counter cache\n\tuint public candidateCount;\n\n\n\t//3. read candidates this is a way to read\n\t//string public candidate;//public is going to assign a getter function to the variable\n\n\t//constructor will run when the app is migrated to the blockchain\n\t//we are defining a constructor in solidity by defining a function as the same name as the contract\n\tfunction Election() public {\n\t\t//this is going to run whenever we deploy it to the blockchain\n\t\t//so it is declared public\n\t\t//store value of candidates\n\t\t//candidate = \"Candidate 1\"; //variable without an underscore is a state variable and it accessible inside our contract belongs to our smart contract \n\t\t//inorder to interact with it we have to create a migration \n\t\taddCandidate(\"candidate 1\");\n\t\taddCandidate(\"candidate 2\");\n\t}\n\t//variables with _ is known as local variables\n\n\tfunction addCandidate (string _name) private {\n\t\tcandidateCount++;\n\t\t//we reference the candidate mapping pass id of candidate to the mapping\n\t\tcandidates[candidateCount] =  Candidate(candidateCount,_name,0);\n\t}\n\n\t//we want our smart contract only able to deploy this app to the blockchain\n\t// we call this inside the constructor and when we deploy this to the blockchsin this methid will be called\n\n\n\t//voter can be anyone connected to the blockchain these are represented by addresses connected to the blockchain\n\t//we get the access to these user accounts using the web3 library\n\n\n\t//cast the vote\n\t//for these functions we can pass metadata in solidity language\n\tfunction vote (uint _candidateId) public {\n\n\t\t//record if that voter has voted as one voter can \n\t\t//app.vote(1,{ from: web3.eth.accounts[0] }) is the command passed\n\t\t//here from is a metadata so it is captcured by the msg.seder and saved it in the voters mapping\n\t\t//we dont want this function to be called by anyone\n\t\t//if address has not voted before\n\t\t//require accept a condition which evaluate to ture condition execures\n\t\trequire(!voters[msg.sender]); //that this address is not in this mapping\n\t\trequire(_candidateId > 0 && _candidateId <=candidateCount);//require a valid candidate\n\n\t\t//voting for a valud candidate\n\t\tvoters[msg.sender] = true;\n\t\t//update candidate voteCount\n\t\t//reference mapping\n\t\tcandidates[_candidateId].voteCount ++;\n\n\n\t\t//we can create an event when the vote are counted ad subscribe to that event in our \n\t\t//front end application to see the votes coming in realtime\n\t\tvotedEvent(_candidateId);\n\t}\n}\n",
  "sourcePath": "/Users/crowderia/Documents/dapp/project/contracts/Election.sol",
  "compiler": {
    "name": "solc",
    "version": "0.4.24+commit.e67f0147.Emscripten.clang"
  },
  "schemaVersion": "2.0.1",
  "updatedAt": "2018-11-14T09:39:34.701Z"
}