{
  "contractName": "Election",
  "abi": [
    {
      "constant": true,
      "inputs": [
        {
          "name": "",
          "type": "uint256"
        }
      ],
      "name": "candidates",
      "outputs": [
        {
          "name": "id",
          "type": "uint256"
        },
        {
          "name": "name",
          "type": "string"
        },
        {
          "name": "voteCount",
          "type": "uint256"
        }
      ],
      "payable": false,
      "stateMutability": "view",
      "type": "function"
    },
    {
      "constant": true,
      "inputs": [],
      "name": "candidateCount",
      "outputs": [
        {
          "name": "",
          "type": "uint256"
        }
      ],
      "payable": false,
      "stateMutability": "view",
      "type": "function"
    },
    {
      "inputs": [],
      "payable": false,
      "stateMutability": "nonpayable",
      "type": "constructor"
    }
  ],
  "bytecode": "0x608060405234801561001057600080fd5b5061005e6040805190810160405280600b81526020017f63616e64696461746520310000000000000000000000000000000000000000008152506100b0640100000000026401000000009004565b6100ab6040805190810160405280600b81526020017f63616e64696461746520320000000000000000000000000000000000000000008152506100b0640100000000026401000000009004565b6101d1565b60016000815480929190600101919050555060606040519081016040528060015481526020018281526020016000815250600080600154815260200190815260200160002060008201518160000155602082015181600101908051906020019061011b92919061012c565b506040820151816002015590505050565b828054600181600116156101000203166002900490600052602060002090601f016020900481019282601f1061016d57805160ff191683800117855561019b565b8280016001018555821561019b579182015b8281111561019a57825182559160200191906001019061017f565b5b5090506101a891906101ac565b5090565b6101ce91905b808211156101ca5760008160009055506001016101b2565b5090565b90565b610224806101e06000396000f30060806040526004361061004c576000357c0100000000000000000000000000000000000000000000000000000000900463ffffffff1680633477ee2e14610051578063a9a981a314610105575b600080fd5b34801561005d57600080fd5b5061007c60048036038101908080359060200190929190505050610130565b6040518084815260200180602001838152602001828103825284818151815260200191508051906020019080838360005b838110156100c85780820151818401526020810190506100ad565b50505050905090810190601f1680156100f55780820380516001836020036101000a031916815260200191505b5094505050505060405180910390f35b34801561011157600080fd5b5061011a6101f2565b6040518082815260200191505060405180910390f35b6000602052806000526040600020600091509050806000015490806001018054600181600116156101000203166002900480601f0160208091040260200160405190810160405280929190818152602001828054600181600116156101000203166002900480156101e25780601f106101b7576101008083540402835291602001916101e2565b820191906000526020600020905b8154815290600101906020018083116101c557829003601f168201915b5050505050908060020154905083565b600154815600a165627a7a72305820c7b76d5066e72c4e42559dd409169ad2ebec5cf9454d2ab2c39ee7f8097341090029",
  "source": "pragma solidity ^0.4.24;\n\ncontract Election {\n\n\t//2.model a candidate\n\tstruct Candidate {\n\t\tuint id;\n\t\tstring name;\n\t\tuint voteCount;\n\t}\n\n\t//1.store candidates we need to save the candidates \n\tmapping(uint => Candidate) public candidates; \n\t//mapping in solidity is like an associative array which maps key value pairs \n\t//when we add candidates we are changing the stte of our blockchain this will be interacting with the data layer of the blockchain\n\t//the size of this mapping cannot be determined in solidity and no way to iterate\n\t//if look for a candidate not stored a default value is returned \n\t//when we call this function it expects a key as an argument\n\n\n\n\t//after returning the promise the items inside the result must be accessed using array repreasentation\n\n\t//fetch candidate\n\n\t//store candidate count we are going to use a counter cache\n\tuint public candidateCount;\n\n\n\t//3. read candidates this is a way to read\n\t//string public candidate;//public is going to assign a getter function to the variable\n\n\t//constructor will run when the app is migrated to the blockchain\n\t//we are defining a constructor in solidity by defining a function as the same name as the contract\n\tfunction Election() public {\n\t\t//this isgoing to run whenever we deploy it to the blockchain\n\t\t//so it is declared public\n\t\t//store value of candidates\n\t\t//candidate = \"Candidate 1\"; //variable without an underscore is a state variable and itaccessible inside our contract belongs to our smart contract \n\t\t//inorder to interact with it we have to create a migration \n\t\taddCandidate(\"candidate 1\");\n\t\taddCandidate(\"candidate 2\");\n\t}\n\t//variables with _ is known as local variables\n\n\tfunction addCandidate (string _name) private {\n\t\tcandidateCount++;\n\t\t//we reference the candidate mapping pass id of candidate to the mapping\n\t\tcandidates[candidateCount] =  Candidate(candidateCount,_name,0);\n\t}\n\n\t//we want our smart contract only able to deploy this app to the blockchain\n\t// we call this inside the constructor and when we deploy this to the blockchsin this methid will be called\n\n\n\t//voter can be anyone connected to the blockchain these are represented by addresses connected to the blockchain\n\t//we get the access to these user accounts using the web3 library\n}\n",
  "sourcePath": "/Users/crowderia/Documents/dapp/project/contracts/Election.sol",
  "compiler": {
    "name": "solc",
    "version": "0.4.24+commit.e67f0147.Emscripten.clang"
  },
  "schemaVersion": "2.0.1",
  "updatedAt": "2018-10-25T11:34:56.168Z"
}